:020000040800F2
:1000000000500020490D00088F0D0008910D0008D8
:10001000930D0008950D0008970D000800000000E2
:10002000000000000000000000000000990D000822
:100030009B0D0008000000009D0D000891090008BC
:10004000A30D0008A50D0008A70D0008A90D0008C4
:10005000AB0D0008AD0D0008AF0D0008B10D000894
:10006000B30D0008B50D0008B70D0008B90D000864
:10007000BB0D0008BD0D0008BF0D0008C10D000834
:10008000C30D0008C50D0008C70D0008C90D000804
:10009000CB0D0008CD0D0008CF0D0008D10D0008D4
:1000A000D30D0008D50D0008D70D0008D90D0008A4
:1000B000DB0D0008590C0008DF0D0008E10D0008F9
:1000C000E30D0008E50D0008E70D0008E90D000844
:1000D000EB0D0008ED0D0008EF0D0008F10D000814
:1000E000F30D0008F50D0008F70D000810B5054CDC
:1000F000237833B9044B13B10448AFF300800123D4
:10010000237010BD7C00002000000000B427000810
:10011000084B10B51BB108490848AFF300800848E8
:10012000036803B910BD074B002BFBD0BDE810409E
:10013000184700BF0000000080000020B42700081E
:100140007C00002000000000154B002B08BF134B63
:100150009D46A3F5803A00218B460F461348144A6A
:10016000121A02F02DFA0F4B002B00D098470E4BBD
:10017000002B00D098470020002104000D000D48FE
:10018000002802D00C48AFF3008002F0F3F9200001
:10019000290000F049FD02F0D9F900BF0000080075
:1001A0000050002000000000000000007C00002043
:1001B000080300200000000000000000C3785BB9C5
:1001C000037801215A09164803F01F03203201FA6F
:1001D00003F340F82230704730B4124B8278D9686C
:1001E0004478C9430F23C1F30221C1F10405CB4078
:1001F000AC401340027823431B0102F16042DBB2A2
:1002000002F5614282F800330378012203F01F00F7
:1002100003495B09824041F8232030BC704700BF8E
:1002200000E100E000ED00E042680B6822F470227B
:1002300030B422F480720C79134343EA0423436000
:100240008568CC688A68094B22432B404C7913435C
:1002500043EA440383600A7CC36A013AD2B223F4BE
:10026000700343EA0253C36230BC7047FDF7F1FFED
:10027000836819B923F001038360704743F00103D9
:1002800083607047836819B923F4A00383607047C3
:1002900043F4A00383607047092970B41DD9A1F10C
:1002A0000A0606EB4606C5680724B440B34025EAB3
:1002B00004042343062AC3601BD90C2A27D90D3A0C
:1002C00002EB8202C36A1F24944001FA02F223EA7D
:1002D00004010A43C26270BC704701EB4106056924
:1002E0000724B440B34025EA04042343062A0361EB
:1002F000E3D8013A02EB8202436B1F24944001FAD7
:1003000002F223EA04010A43426370BC7047073AD1
:1003100002EB8202036B1F24944001FA02F223EAEB
:1003200004010A43026370BC704700BFC06C80B216
:10033000704700BF0368194214BF012000207047B6
:10034000CB782DE9F04103F00F06DB0648BF8B7830
:100350000C8848BF1E4314F0FF0F26D00568002309
:1003600001274FF00F0803E00133082B1BD00C8846
:1003700007FA03F232EA0404F6D19C0091F803E094
:1003800008FA04FC25EA0C0506FA04F4BEF1280F6D
:1003900045EA040538D0BEF1480F03F1010308BF58
:1003A0000261082BE3D105600C88FF2C2AD945682F
:1003B000002301274FF00F0C03E00133082B20D05E
:1003C0000C8803F1080207FA02F232EA0404F4D1BD
:1003D00091F803E09C00BEF1280F04BF426191F840
:1003E00003E00CFA04F8BEF1480F03F1010325EA1B
:1003F000080506FA04F408BF0261082B45EA040563
:10040000DED14560BDE8F0814261ADE78368194205
:1004100014BF01200020704701617047416170479F
:1004200029B9054A936923EA000090617047024B9D
:100430009A691043986170470010024029B9054A33
:10044000D36923EA0000D0617047024BDA69104398
:10045000D861704700100240254A038890429BB241
:1004600012D002F5006290420ED0B0F1804F0BD056
:10047000A2F59832904207D002F58062904203D0F4
:1004800002F58062904203D14A8823F0700313433F
:10049000184A904224D002F58062904220D0CA8847
:1004A00023F440739BB2134303808A88104B8285E8
:1004B0000A88984202850ED00F4B98420BD003F564
:1004C0004063984207D003F58063984203D003F558
:1004D0008063984201D10B7A03860123838270479F
:1004E00003808B8883850B88038501238382704773
:1004F000002C01400010004000340140038CF0B497
:1005000023F001031B041B0C0384048C8788028BDB
:100510000E8924F002044B881B4D240422F0730240
:10052000240C334312040E882343120CA8429BB2BE
:10053000BCB242EA060216D005F50065A84212D008
:1005400005F54065A8420ED005F58065A8420AD0A1
:1005500005F58065A84206D084800283CA88F0BC75
:100560008286038470474E898F89CD8923F00803E2
:10057000334324F440748E883D4323F004032C431A
:100580003343A4B2E8E700BF002C0140038829B937
:1005900023F001031B041B0C038070479BB243F044
:1005A00001030380704700BF83899BB21AB923EA15
:1005B000010181817047194381817047FFF7F4BFC2
:1005C000038B23F008031B041B0C194301837047A2
:1005D000038A828911EA030092B203D0114214BF48
:1005E00001200020704700BFC94389B201827047D3
:1005F00000B5012383B00093044A054B0B21054845
:1006000000F0AEFC03B05DF804FB00BFEC25000871
:1006100098000020D802002000B583B0009001238C
:1006200001AA6946034800F0ADFC019803B05DF8EB
:1006300004FB00BFD802002000B5012383B0009363
:10064000044A054B0921054800F08AFC03B05DF817
:1006500004FB00BF18260008C4000020E4020020AC
:1006600000B583B00090012301AA6946034800F059
:1006700089FC019803B05DF804FB00BFE402002090
:1006800000B5012383B00093044A054B332105488C
:1006900000F066FC03B05DF804FB00BF3C260008D8
:1006A000E8000020F002002000B583B00090012394
:1006B00001AA6946034800F065FC019803B05DF8A3
:1006C00004FB00BFF002002000B5012383B00093BB
:1006D000044A054B2921054800F042FC03B05DF8AF
:1006E00004FB00BF08270008B4010020FC02002022
:1006F00000B583B00090012301AA6946034800F0C9
:1007000041FC019803B05DF804FB00BFFC0200202F
:10071000022970B513D003290ED10A4E0A4C216864
:10072000256801F0B9FC314601F0C0FD294601F011
:10073000B5FC2060206870BD4FF07C56EEE7034E9C
:10074000ECE700BFCDCCCC3DB80200209A99993E91
:1007500005292DE9F041074629D0062923D04FF07D
:1007600082480724164B1E461D4603EB840454F8AA
:10077000043D10461946636001F090FCA542024614
:10078000F5D13946376001F089FC414601F042FE5F
:1007900001F0A8F908A3D3E9002301F0F7F901F06B
:1007A00027FCBDE8F081DFF81C801724DAE74FF062
:1007B00083480F24D6E700BF9A9999999999E93F00
:1007C000580200200000C041F0B540F2FF3701217F
:1007D0008BB008460124FFF731FE002503A94FF036
:1007E0008040ADF81070ADF80C40ADF81250ADF887
:1007F0000E50FFF731FE21464FF08040FFF7C6FE56
:10080000602306A94FF08040ADF81830224EADF8B5
:100810001A40ADF82050ADF81E50FFF76FFE0821CA
:100820004FF08040FFF7CCFE21460220FFF706FE86
:1008300003A93046ADF81070ADF80C40ADF8125079
:10084000ADF80E50FFF708FE224621463046FFF76E
:10085000B5FE21463046FFF799FE1D2301A88DF80D
:1008600004308DF805508DF806508DF80740FFF7DD
:10087000A5FC21460420FFF7D3FD1822022302A97C
:100880000648ADF808408DF80B208DF80A30FFF7C8
:1008900057FD0BB0F0BD00BF000400400008014050
:1008A0004FF080439886704770B5184E86B001218E
:1008B0004FF40070FFF7B4FD012400254FF46023CE
:1008C000304601A903938DF80950049501958DF8E0
:1008D00008508DF81440FFF7A7FC21463046FFF77B
:1008E000C7FC2346224621463046FFF7D5FC214669
:1008F0000420FFF795FD0223694605488DF8035053
:10090000ADF80030FFF71CFD06B070BD00240140BB
:100910000008014008B501210648FFF7B3FC022199
:100920000448FFF707FD0028F9D00248BDE8084059
:10093000FFF7FCBC0024014010B5012182B010205B
:10094000FFF76EFD02244FF40052102301A90E4858
:10095000ADF804208DF807308DF80640FFF7F0FC65
:1009600001210820FFF75CFD4FF47042482301A9E4
:1009700006488DF80640ADF804208DF80730FFF7E3
:10098000DFFC02B010BD00BF00100140000C0140B0
:10099000034B1A6812B11A68013A1A60704700BF17
:1009A000BC02002038B500F0ADFA094B09491B68BC
:1009B000094AA1FB0313094C9B0C013BF0250020C5
:1009C0000721536084F823509060116038BD00BF48
:1009D0001000002083DE1B4310E000E000ED00E08B
:1009E00010F1FF30054A4FF47A7106D31160136895
:1009F000002BFCD110F1FF30F8D27047BC02002070
:100A000008B501F0FBFB01F06DF809A3D3E9002361
:100A100001F0BCF800220A4B01F0B8F806A3D3E9B4
:100A2000002300F0FFFE01F0E3FA08BDAFF3008001
:100A30009A999999999909409A9999999999F93F07
:100A40000000503F0000000008B501F04BF80AA379
:100A5000D3E9002300F0E8FE00220B4B01F096F8EA
:100A600007A3D3E9002301F0BBF901F0A1FA80B29A
:100A700008BD00BFAFF300809A9999999999F93F01
:100A80009A999999999909400000904010B5094C9C
:100A90004FF400512046FFF7C1FC1E20FFF7A0FFD6
:100AA00020464FF40051FFF7B7FCBDE810401E2070
:100AB000FFF796BF001001402DE9F84FDFF8D4B0E2
:100AC000DFF8D4A0DFF8D490DFF8D4802C4BBBF84B
:100AD0000070BAF80060B9F80050B8F800401B8800
:100AE000BFB29BB2B6B2ADB2A4B2002B45D1B7FA39
:100AF00087F701217F09234B1B889BB21BB9B6FAEC
:100B000086F601217609204B1A8892B26AB32A46EA
:100B10001E4B1B889BB253B12346B8190244D3180D
:100B200013D01B4B01221A8099B9BDE8F88F01340C
:100B3000A4B2062C98BF234607EB0600024488BFE8
:100B40001C46D3184FF00101EBD1114A1380002944
:100B5000EBD0FFF79BFFABF80070AAF80060A9F894
:100B60000050A8F80040BDE8F88F0135ADB2022D65
:100B700094BF2A4615460121CAE70021BBE700BF02
:100B8000C0020020C2020020C4020020C6020020D1
:100B9000D6020020C8020020CA020020CC02002099
:100BA000CE02002008B54FF480511848FFF72EFC04
:100BB000174B82B24FF4005114481A80FFF726FCFD
:100BC000144B82B24FF4804110481A80FFF71EFC8C
:100BD000114B82B24FF400410C481A80FFF716FC0B
:100BE0000E4B80B21880FFF767FF0D4B4FF400519A
:100BF0001B880C489BB2012B03D0BDE80840FFF7CF
:100C00000BBCBDE80840FFF709BC00BF000C014069
:100C1000C0020020C2020020C4020020C602002040
:100C2000D60200200010014008B5FFF7BBFEFFF719
:100C30003BFEFFF7C9FDFFF77FFEFFF7D9FCFFF78B
:100C4000FBFCFFF71DFDFFF73FFDFFF7ABFF0A20A1
:100C5000FFF7C6FEF9E700BF70B501213348FFF783
:100C6000B7FC00B970BDFFF755FE314DC0F38F00E2
:100C7000288028882F4C80B2FFF7C2FE2E4B2060C0
:100C80001B889BB2012B3AD02C4B1B889BB2012BAB
:100C900043D02B4E33889BB2012B39D033889BB283
:100CA000022B27D0274E33889BB24BB133889BB29F
:100CB000032B05D82068318889B2FFF729FD206011
:100CC0003388204A9BB2032B0DD82068FFF7BCFE67
:100CD0002880288880B2FFF7E3FDBDE8704001213D
:100CE0001248FFF781BC2068118889B2FFF730FDF8
:100CF0002060EAE72068FFF7B3FC2060D2E72068B5
:100D0000FFF7AEFC20602068FFF7F2FC2060BBE735
:100D10002068FFF781FC2060C0E72068FFF7A0FC97
:100D200020602068FFF7C0FC2060B2E700040040AC
:100D3000D4020020D0020020C8020020CA020020F5
:100D4000CC020020CE0200200649074A074B9A42F7
:100D5000BEBF51F8040B42F8040BF8E70448804783
:100D600004480047C0270008000000207C00002045
:100D7000010E0008490100081F49204A002301E034
:100D800041F8043B9142FBD3FFF74EFFFEE7FEE73D
:100D9000FEE7FEE7FEE7FEE7FEE7FEE7FEE7FEE72B
:100DA000FEE7FEE7FEE7FEE7FEE7FEE7FEE7FEE71B
:100DB000FEE7FEE7FEE7FEE7FEE7FEE7FEE7FEE70B
:100DC000FEE7FEE7FEE7FEE7FEE7FEE7FEE7FEE7FB
:100DD000FEE7FEE7FEE7FEE7FEE7FEE7FEE7FEE7EB
:100DE000FEE7FEE7FEE7FEE7FEE7FEE7FEE7FEE7DB
:100DF000FEE7FEE7FEE7FEE77C0000200803002098
:100E000030B43C4B3C49186882B040F00100186097
:100E10005D6800202940596019684FF41F0421F0D3
:100E2000847121F48031196019681A4621F48021F7
:100E30001960596821F4FE0159609C60009001908E
:100E4000196841F48031196003E0009BB3F5A06F8D
:100E500009D0136803F400330193009B013300931E
:100E6000019B002BF1D0234B1B6813F4003318BFF8
:100E700001230193019B012B06D0204B4FF0006210
:100E80009A6002B030BC70471D4A1A4B1068194670
:100E900040F010001060106820F00300106010682F
:100EA00040F0020010605A685A605A685A605A68E6
:100EB00042F480625A605A6822F47C125A605A687E
:100EC00042F4E8125A601A6842F080721A600B68A5
:100ED000084A9B01FBD51146536823F00303536076
:100EE000536843F0020353604B6803F00C03082B74
:100EF000FAD1C2E7001002400000FFF800ED00E068
:100F000000200240114A536803F00C03082B0ED155
:100F100053685168C3F38343C90303F1020311D536
:100F2000526892030ED40A4A02FB03F300E0084B16
:100F3000064A084852680849C2F30312825CD3404B
:100F40000B607047054A02FB03F3F1E70010024013
:100F500000127A00000000201000002000093D006F
:100F600038B504461D460498A26000F18042013A5B
:100F70000A44218092001846002101F021FB65609F
:100F800038BD00BF2DE9F04F05466C68A5B0264678
:100F9000229000881E9400F18047013F06EB8704F1
:100FA000964620921F9432462646AC682393DB086F
:100FB0001990159125461894219300F0C08304469A
:100FC0001693C30828461A935B011844043B1D93EB
:100FD00004F007031B9306F1200313930B46203301
:100FE000149302F120031293734620331C9017933D
:100FF000129914980A1F0292024650F8203C139D41
:10100000002645F8203C50F81C3C45F81C3C50F8A4
:10101000183C104645F8183C52F8143C024645F876
:10102000143C50F8103C45F8103C50F80C3C10466D
:1010300045F80C3C52F8083C45F8083C50F8043C94
:1010400045F8043C51F8203C51F81C2C019351F810
:10105000183C0492059351F8143C51F8102C069357
:1010600051F80C3C0792089351F8083C09931A9BDD
:10107000002B00F0C9830B93189B37462033029353
:101080000B46B046B146B246B34635461C330A96C7
:101090000393029B019853F8204C214601F006F976
:1010A0000146284600F0FAFF21460D90049801F011
:1010B000FDF801460A9800F0F1FF214601900598DD
:1010C00001F0F4F80146584600F0E8FF2146834657
:1010D000069801F0EBF80146504600F0DFFF21468C
:1010E0008246079801F0E2F80146484600F0D6FF34
:1010F00021468146089801F0D9F80146404600F0A3
:10110000CDFF21468046099801F0D0F8039A0146A8
:10111000384652F8205C00F0C1FF21460C9028466A
:101120000A9501F0C3F80146304600F0B7FF029C73
:10113000074654F81C5C0498294601F0B7F80D9A4C
:101140000146104600F0AAFF29461090059801F0CC
:10115000ADF8019B0146184600F0A0FF29460F900C
:10116000069801F0A3F80146584600F097FF29467B
:101170000646079801F09AF80146504600F08EFFA7
:1011800029460E90089801F091F80146484600F073
:1011900085FF29460D90099801F088F80B9B039A6A
:1011A00003F1FF3ECDF82CE052F81CEC0146CDF8DF
:1011B00004E04046F04652F818EC0294CDF810E0F6
:1011C00000F06CFF294682460A9801F06FF801464C
:1011D0000C9800F063FF294681464046CDF8048014
:1011E00001F064F80146384600F058FF54F8184CF6
:1011F00005462146059801F059F8109A0146104617
:1012000000F04CFF21468346069801F04FF80F9BF3
:101210000146184600F042FF21468046079801F03B
:1012200045F80146304600F039FF21460746089848
:1012300001F03CF8DDF838C00146604600F02EFFB2
:1012400021460646099801F031F801460D9800F054
:1012500025FF21460F900A9801F028F801465046D4
:1012600000F01CFF21468246019801F01FF801465C
:10127000484600F013FF21460C90049801F016F840
:101280000146284600F00AFF029C0E9054F8145CB8
:101290000698294601F00AF80146584600F0FEFE7D
:1012A00029468146079801F001F80146404600F0C2
:1012B000F5FE29468046089800F0F8FF01463846BA
:1012C00000F0ECFE29460746099800F0EFFF0146C2
:1012D000304600F0E3FE039B294653F8142C53F8E4
:1012E000106C0D900A9805920294069600F0DEFFAD
:1012F000DDF83CC00146604600F0D0FE294683463A
:10130000019800F0D3FF0146504600F0C7FE294681
:101310008246049800F0CAFF01460C9800F0BEFE19
:1013200029460646059800F0C1FF0E9A0146104670
:1013300000F0B4FE54F8104C05462146079800F022
:10134000B5FF0146484600F0A9FE214681460898AF
:1013500000F0ACFF0146404600F0A0FE214680466A
:10136000099800F0A3FF0146384600F097FE214699
:1013700007460A9800F09AFF0D9B0146184600F0B8
:101380008DFE21461190019800F090FF01465846CD
:1013900000F084FE21460C90049800F087FF01467F
:1013A000504600F07BFE21460D90059800F07EFF30
:1013B0000146304600F072FE21460E90069800F07D
:1013C00075FF0146284600F069FE029C064654F867
:1013D0000C5C0898294600F069FF0146484600F079
:1013E0005DFE29461090099800F060FF01464046D6
:1013F00000F054FE29460F900A9800F057FF039A18
:10140000029B52F808CC0146384652F80C7C53F83F
:10141000084CCDF820C0079700F040FE29468346CF
:10142000019800F043FFDDF844C00146604600F03B
:1014300035FE29468246049800F038FF01460C9894
:1014400000F02CFE29468146059800F02FFF01464A
:101450000D9800F023FE29468046069800F026FFEE
:1014600001460E9800F01AFE29460746079800F03C
:101470001DFF0146304600F011FE21460646099840
:1014800000F014FF109A0146104600F007FE2146B6
:1014900005460A9800F00AFF0F9B0146184600F027
:1014A000FDFD21460990019800F000FF01465846D5
:1014B00000F0F4FD21468346049800F0F7FE014653
:1014C000504600F0EBFD21468246059800F0EEFE06
:1014D0000146484600F0E2FD21468146069800F0AC
:1014E000E5FE0146404600F0D9FD214680460798BA
:1014F00000F0DCFE0146384600F0D0FD029A0746B7
:101500002146089852F8044C00F0D0FE01463046BF
:1015100000F0C4FD214606460A9800F0C7FE0146C9
:10152000284600F0BBFD21460546019800F0BEFEAE
:10153000099B0146184600F0B1FD039B214653F874
:1015400004EC0A900498CDF824E000F0AFFE0146C8
:10155000584600F0A3FD21468346059800F0A6FEFC
:101560000146504600F09AFD21468246069800F05A
:101570009DFE0146484600F091FD214681460798B0
:1015800000F094FE0146404600F088FD214680466A
:10159000089800F08BFE0146384600F07FFD21469A
:1015A0000746099800F082FE039B029A014602F169
:1015B00020041A46304620320294039200F06EFD59
:1015C0000B9B0646002B7FF464AD129A1D9B1344BF
:1015D0001C9A02931B9B002B7FD0CDF82CB0B446F5
:1015E000DDF824B0049ECDF824A0DDF820A0CDF8CD
:1015F0002090DDF81C90CDF81C80DDF8188006974F
:10160000059F039552F8044B0198214604920D92D0
:10161000CDF814C00C9300F049FE0146039800F089
:101620003DFD21460390304600F040FE01460A98F9
:1016300000F034FD21460A90384600F037FE01469E
:101640000B9800F02BFD21460B90404600F02EFE3B
:101650000146099800F022FD21460990484600F015
:1016600025FE0146089800F019FD214608905046D5
:1016700000F01CFE0146079800F010FD214607907F
:10168000584600F013FE029B014653F8045B06988F
:10169000029300F003FD21460690284600F006FE66
:1016A000DDF814C001466046019600F0F7FC0C9B83
:1016B0003E46013B47468446C846049AD146DA4630
:1016C000AB469FD10646039DDDF82CB0DDF824A083
:1016D000DDF82090DDF81C80069F179A0A991346C2
:1016E00042F8205C42F81C1C42F818BC42F814ACCA
:1016F00042F8109C42F80C8C42F8087C42F8046CCA
:10170000139A203320321392149A17932032169B87
:101710001492129A013B02F12002129216937FF466
:1017200067AC219B1F9A5B011A441F92159A1A44B9
:1017300015921E9A1A441E92209A1A442092239BB4
:1017400013F007082CD046461F9B1E9DDDF88090A5
:101750001F1FCDF80480AA46159B199C53F8041B43
:10176000DDF8608015934FF0000B47F8041F58F820
:10177000041B5AF8040B00F099FD0146584600F08E
:101780008DFC013C8346F2D1013E49F8040B05F182
:101790000405E0D11E9BDDF8048003EB88031E9353
:1017A000199B591E229B8E085C681FD030461E9BD9
:1017B00004F11002103353F8105C013842F8105C49
:1017C00053F80C5C02F1100242F81C5C53F8085C00
:1017D00003F1100342F8185C53F8145C42F8145CEF
:1017E000E9D11E9A33011A441C441E9211F00303DE
:1017F00007D01E99221F51F8040B013B42F8040F39
:10180000F9D125B0BDE8F08F189A3746B046B146F9
:10181000B246B3460A963546DCE600BF81F0004189
:1018200002E000BF83F0004330B54FEA41044FEAC5
:10183000430594EA050F08BF90EA020F1FBF54EA60
:10184000000C55EA020C7FEA645C7FEA655C00F0FC
:10185000E2804FEA5454D4EB5555B8BF6D420CDDCD
:101860002C4480EA020281EA030382EA000083EA50
:10187000010180EA020281EA0303362D88BF30BDF0
:1018800011F0004F4FEA01314FF4801C4CEA113146
:1018900002D0404261EB410113F0004F4FEA0333A5
:1018A0004CEA133302D0524263EB430394EA050F30
:1018B00000F0A780A4F10104D5F1200E0DDB02FA9F
:1018C0000EFC22FA05F2801841F1000103FA0EF233
:1018D000801843FA05F359410EE0A5F120050EF1F9
:1018E000200E012A03FA0EFC28BF4CF0020C43FA2A
:1018F00005F3C01851EBE37101F0004507D54FF037
:10190000000EDCF1000C7EEB00006EEB0101B1F586
:10191000801F1BD3B1F5001F0CD349085FEA3000CC
:101920004FEA3C0C04F101044FEA445212F5800FD7
:1019300080F09A80BCF1004F08BF5FEA500C50F174
:10194000000041EB045141EA050130BD5FEA4C0C57
:10195000404141EB010111F4801FA4F10104E9D1E0
:1019600091F0000F04BF01460020B1FA81F308BFD7
:101970002033A3F10B03B3F120020CDA0C3208DDA3
:1019800002F1140CC2F10C0201FA0CF021FA02F17E
:101990000CE002F11402D8BFC2F1200C01FA02F1EE
:1019A00020FA0CFCDCBF41EA0C019040E41AA2BF13
:1019B00001EB0451294330BD6FEA04041F3C1CDADB
:1019C0000C340EDC04F11404C4F1200220FA04F0FB
:1019D00001FA02F340EA030021FA04F345EA0301A5
:1019E00030BDC4F10C04C4F1200220FA02F001FA67
:1019F00004F340EA0300294630BD21FA04F02946E9
:101A000030BD94F0000F83F4801306BF81F4801181
:101A10000134013D4EE77FEA645C18BF7FEA655CF4
:101A200029D094EA050F08BF90EA020F05D054EAC6
:101A3000000C04BF1946104630BD91EA030F1EBFCB
:101A40000021002030BD5FEA545C05D140004941CF
:101A500028BF41F0004130BD14F580043CBF01F5C2
:101A6000801130BD01F0004545F0FE4141F47001A8
:101A70004FF0000030BD7FEA645C1ABF1946104683
:101A80007FEA655C1CBF0B46024650EA013406BF84
:101A900052EA033591EA030F41F4002130BD00BF43
:101AA00090F0000F04BF0021704730B54FF4806400
:101AB00004F132044FF000054FF0000150E700BF81
:101AC00090F0000F04BF0021704730B54FF48064E0
:101AD00004F1320410F0004548BF40424FF00001CD
:101AE0003EE700BF42004FEAE2014FEA31014FEA10
:101AF00002701FBF12F07F4393F07F4F81F060515F
:101B0000704792F0000F14BF93F07F4F704730B5CD
:101B10004FF4607401F0004521F0004120E700BF60
:101B200050EA010208BF704730B54FF000050AE0E7
:101B300050EA010208BF704730B511F0004502D5E8
:101B4000404261EB41014FF4806404F132045FEAEA
:101B5000915C3FF4DCAE4FF003025FEADC0C18BF8F
:101B600003325FEADC0C18BF033202EBDC02C2F185
:101B7000200300FA03FC20FA02F001FA03FE40EA17
:101B80000E0021FA02F11444C1E600BF70B54FF017
:101B9000FF0C4CF4E06C1CEA11541DBF1CEA1355F9
:101BA00094EA0C0F95EA0C0F00F0DEF82C4481EA61
:101BB000030621EA4C5123EA4C5350EA013518BF81
:101BC00052EA033541F4801143F4801338D0A0FB6E
:101BD00002CE4FF00005E1FB02E506F00042E0FB1B
:101BE00003E54FF00006E1FB03569CF0000F18BF21
:101BF0004EF0010EA4F1FF04B6F5007F64F54074C9
:101C000004D25FEA4E0E6D4146EB060642EAC6215B
:101C100041EA55514FEAC52040EA5E504FEACE2EC8
:101C2000B4F1FD0C88BFBCF5E06F1ED8BEF1004FCB
:101C300008BF5FEA500E50F1000041EB045170BD47
:101C400006F0004646EA010140EA020081EA03018B
:101C5000B4EB5C04C2BFD4EB0C0541EA045170BD87
:101C600041F480114FF0000E013C00F3AB8014F101
:101C7000360FDEBF002001F0004170BDC4F100044A
:101C8000203C35DA0C341BDC04F11404C4F12005CB
:101C900000FA05F320FA04F001FA05F240EA020026
:101CA00001F0004221F0004110EBD37021FA04F65C
:101CB00042EB06015EEA430E08BF20EAD37070BD16
:101CC000C4F10C04C4F1200500FA04F320FA05F075
:101CD00001FA04F240EA020001F0004110EBD37077
:101CE00041F100015EEA430E08BF20EAD37070BDE7
:101CF000C4F1200500FA05F24EEA020E20FA04F3C0
:101D000001FA05F243EA020321FA04F001F000416E
:101D100021FA04F220EA020000EBD3705EEA430EDF
:101D200008BF20EAD37070BD94F0000F0FD101F00E
:101D30000046400041EB010111F4801F08BF013C47
:101D4000F7D041EA060195F0000F18BF704703F085
:101D50000046520043EB030313F4801F08BF013D0C
:101D6000F7D043EA0603704794EA0C0F0CEA1355C8
:101D700018BF95EA0C0F0CD050EA410618BF52EA82
:101D80004306D1D181EA030101F000414FF0000088
:101D900070BD50EA410606BF1046194652EA430696
:101DA00019D094EA0C0F02D150EA013613D195EA0A
:101DB0000C0F05D152EA03361CBF104619460AD152
:101DC00081EA030101F0004141F0FE4141F470015C
:101DD0004FF0000070BD41F0FE4141F4780170BD4C
:101DE00070B54FF0FF0C4CF4E06C1CEA11541DBFB1
:101DF0001CEA135594EA0C0F95EA0C0F00F0A7F8B3
:101E0000A4EB050481EA030E52EA03354FEA0131DF
:101E100000F088804FEA03334FF0805545EA1313F2
:101E200043EA12634FEA022245EA111545EA1065BA
:101E30004FEA00260EF000419D4208BF964244F151
:101E4000FD0404F5407402D25B084FEA3202B61A70
:101E500065EB03055B084FEA32024FF480104FF444
:101E6000002CB6EB020E75EB030E22BFB61A7546B8
:101E700040EA0C005B084FEA3202B6EB020E75EB4B
:101E8000030E22BFB61A754640EA5C005B084FEAB3
:101E90003202B6EB020E75EB030E22BFB61A754680
:101EA00040EA9C005B084FEA3202B6EB020E75EB8B
:101EB000030E22BFB61A754640EADC0055EA060E4C
:101EC00018D04FEA051545EA16754FEA06164FEA8F
:101ED000C30343EA52734FEAC2025FEA1C1CC0D13B
:101EE00011F4801F0BD141EA00014FF000004FF0C8
:101EF000004CB6E711F4801F04BF01430020B4F189
:101F0000FD0C88BFBCF5E06F3FF6AFAEB5EB030C40
:101F100004BFB6EB020C5FEA500C50F1000041EB3D
:101F2000045170BD0EF0004E4EEA113114EB5C040A
:101F3000C2BFD4EB0C0541EA045170BD41F48011DD
:101F40004FF0000E013C90E645EA060E8DE60CEAE5
:101F5000135594EA0C0F08BF95EA0C0F3FF43BAF02
:101F600094EA0C0F0AD150EA01347FF434AF95EAB9
:101F70000C0F7FF425AF104619462CE795EA0C0F9D
:101F800006D152EA03353FF4FDAE1046194622E76A
:101F900050EA410618BF52EA43067FF4C5AE50EA44
:101FA00041047FF40DAF52EA43057FF4EBAE12E734
:101FB0004A0011D212F5001211D20DD56FF47873C8
:101FC000B3EB62520ED44FEAC12343F0004343EA1D
:101FD000505323FA02F070474FF00000704750EA68
:101FE000013002D14FF0FF3070474FF000007047D2
:101FF0004FEA4102B2F1E04324BFB3F5001CDCF12B
:10200000FE5C0DD901F0004C4FEAC0024CEA507062
:10201000B2F1004F40EB830008BF20F00100704791
:1020200011F0804F21D113F13872BCBF01F0004094
:10203000704741F480114FEA5252C2F11802C2F1C6
:10204000200C10FA0CF320FA02F018BF40F0010047
:102050004FEAC1234FEAD32303FA0CFC40EA0C00F9
:1020600023FA02F34FEA4303CCE77FEA625307D136
:1020700050EA01331EBF4FF0FE4040F4400070476D
:1020800001F0004040F0FE4040F40000704700BF07
:1020900080F0004002E000BF81F0004142001FBF1D
:1020A0005FEA410392EA030F7FEA226C7FEA236C26
:1020B0006AD04FEA1262D2EB1363C1BFD21841401B
:1020C00048404140B8BF5B42192B88BF704710F0B1
:1020D000004F40F4000020F07F4018BF404211F054
:1020E000004F41F4000121F07F4118BF494292EABC
:1020F000030F3FD0A2F1010241FA03FC10EB0C00E8
:10210000C3F1200301FA03F100F0004302D5494274
:1021100060EB4000B0F5000F13D3B0F1807F06D321
:1021200040084FEA310102F10102FE2A51D2B1F119
:10213000004F40EBC25008BF20F0010040EA03000E
:102140007047490040EB000010F4000FA2F10102BB
:10215000EDD1B0FA80FCACF1080CB2EB0C0200FA45
:102160000CF0AABF00EBC25052421843BCBFD04093
:102170001843704792F0000F81F4000106BF80F40D
:1021800000000132013BB5E74FEA41037FEA226CD0
:1021900018BF7FEA236C21D092EA030F04D092F09B
:1021A000000F08BF0846704790EA010F1CBF0020CF
:1021B000704712F07F4F04D1400028BF40F000402C
:1021C000704712F100723CBF00F50000704700F04C
:1021D000004343F0FE4040F4000070477FEA226273
:1021E00016BF08467FEA23630146420206BF5FEA44
:1021F000412390EA010F40F4800070474FF0000344
:1022000004E000BF10F0004348BF40425FEA000C0A
:1022100008BF704743F0964301464FF000001CE0B2
:1022200050EA010208BF70474FF000030AE000BF08
:1022300050EA010208BF704711F0004302D5404246
:1022400061EB41015FEA010C02BF844601460020B8
:1022500043F0B64308BFA3F18053A3F50003BCFAD3
:102260008CF2083AA3EBC25310DB01FA02FC634480
:1022700000FA02FCC2F12002BCF1004F20FA02F287
:1022800043EB020008BF20F00100704702F120027A
:1022900001FA02FCC2F1200250EA4C0021FA02F2DB
:1022A00043EB020008BF20EADC7070474FF0FF0CE0
:1022B0001CEAD0521EBF1CEAD15392EA0C0F93EADB
:1022C0000C0F6FD01A4480EA010C400218BF5FEA7D
:1022D00041211ED04FF0006343EA501043EA5111F0
:1022E000A0FB01310CF00040B1F5000F3EBF4900EA
:1022F00041EAD3715B0040EA010062F17F02FD2AEE
:102300001DD8B3F1004F40EBC25008BF20F00100D0
:10231000704790F0000F0CF0004C08BF49024CEAE7
:10232000502040EA51207F3AC2BFD2F1FF0340EA79
:10233000C250704740F400004FF00003013A5DDCEA
:1023400012F1190FDCBF00F000407047C2F100022B
:10235000410021FA02F1C2F1200200FA02FC5FEA18
:10236000310040F1000053EA4C0308BF20EADC7062
:10237000704792F0000F00F0004C02BF400010F4D4
:10238000000F013AF9D040EA0C0093F0000F01F081
:10239000004C02BF490011F4000F013BF9D041EAA3
:1023A0000C018FE70CEAD15392EA0C0F18BF93EAA5
:1023B0000C0F0AD030F0004C18BF31F0004CD8D1CF
:1023C00080EA010000F00040704790F0000F17BF56
:1023D00090F0004F084691F0000F91F0004F14D09C
:1023E00092EA0C0F01D142020FD193EA0C0F03D1F4
:1023F0004B0218BF084608D180EA010000F00040F7
:1024000040F0FE4040F40000704740F0FE4040F4D1
:10241000400070474FF0FF0C1CEAD0521EBF1CEA70
:10242000D15392EA0C0F93EA0C0F69D0A2EB03028E
:1024300080EA010C49024FEA402037D04FF0805328
:1024400043EA111143EA10130CF000408B4238BFED
:102450005B0042F17D024FF4000C8B4224BF5B1AFB
:1024600040EA0C00B3EB510F24BFA3EB510340EA49
:102470005C00B3EB910F24BFA3EB910340EA9C00F7
:10248000B3EBD10F24BFA3EBD10340EADC001B0167
:1024900018BF5FEA1C1CE0D1FD2A3FF650AF8B420B
:1024A00040EBC25008BF20F0010070470CF0004C18
:1024B0004CEA50207F32C2BFD2F1FF0340EAC25043
:1024C000704740F400004FF00003013A37E792F004
:1024D000000F00F0004C02BF400010F4000F013A62
:1024E000F9D040EA0C0093F0000F01F0004C02BF5D
:1024F000490011F4000F013BF9D041EA0C0195E7C6
:102500000CEAD15392EA0C0F08D142027FF47DAF5E
:1025100093EA0C0F7FF470AF084676E793EA0C0F4E
:1025200004D14B023FF44CAF08466EE730F0004C4C
:1025300018BF31F0004CCAD130F000427FF45CAFDC
:1025400031F000437FF43CAF5FE700BF08B5074BB5
:10255000044613B10021AFF30080054B1868836A6D
:1025600003B19847204600F033F800BF0000000098
:10257000B02700080E4B70B51E460E4C0025E41A1D
:10258000A410A54204D056F8253098470135F8E745
:1025900000F020F8084B094C1E46E41AA410002550
:1025A000A54204D056F8253098470135F8E770BDAC
:1025B00074000020740000207400002078000020C7
:1025C00003460244934202D003F8011BFAE7704726
:1025D000FEE70000F8B500BFF8BC08BC9E46704797
:1025E000F8B500BFF8BC08BC9E4670476F1283BBAD
:1025F0007044F73B82AA513D6C5CFF3DD40F4A3ECC
:10260000DC63693ED40F4A3E6C5CFF3D82AA513DBB
:102610007044F73B6F1283BBD8EF09BC93A9023C0F
:1026200043C7CE3DB537783EA774A03EB537783E58
:1026300043C7CE3D93A9023CD8EF09BCAB798EBA13
:10264000C573B6BAFBEA2ABABD3786B5426065BA29
:102650000F9B48BB42437FBBB91C2FB96805063CA2
:10266000FF05823C98A1713C87C3D239B891B2BCB6
:10267000BF9918BD3F02FFBCA30312BAF437213D36
:10268000F6D37F3DBDA6473DE3C2013AD00F63BDFF
:10269000821EAABD7A517BBDA8AA50B9EDF1823D38
:1026A0002272BA3DEDF1823DA8AA50B97A517BBDA4
:1026B000821EAABDD00F63BDE3C2013ABDA6473D4D
:1026C000F6D37F3DF437213DA30312BA3F02FFBC8E
:1026D000BF9918BDB891B2BC87C3D23998A1713CDB
:1026E000FF05823C6805063CB91C2FB942437FBBFD
:1026F0000F9B48BB426065BABD3786B5FBEA2ABA74
:10270000C573B6BAAB798EBA80996FBA465B15BB02
:102710002DCDADBABD37063B5A12A03B0A14313B52
:10272000438CD7BBE0D99EBCF7E4E1BC5588C7BC5D
:1027300067623ABC696E05BAFD6CE4BB27DD16BD65
:102740009E609FBDCBD8D0BD4E64A6BD2063EEBBBE
:102750004E0CC93DC495433EDC63693EC495433E7F
:102760004E0CC93D2063EEBB4E64A6BDCBD8D0BD98
:102770009E609FBD27DD16BDFD6CE4BB696E05BA8A
:1027800067623ABC5588C7BCF7E4E1BCE0D99EBC9F
:10279000438CD7BB0A14313B5A12A03BBD37063BD2
:1027A0002DCDADBA465B15BB80996FBA43000000D2
:0827B0001400002000000000ED
:0827B80090D9FF7F0100000031
:1027C00000000000000000000102030406070809E1
:1027D00000A24A0400000000000000000000000009
:1027E00000000000000000000000000000000000E9
:1027F00000000000AC2700080000000000000000FE
:1028000000000000000000000000000000000000C8
:1028100000000000000000000000000000000000B8
:1028200000000000000000000000000000000000A8
:0C2830000000000011010008ED0000088D
:0400000508000000EF
:00000001FF
